{
  "contractName": "Wallet",
  "abi": [
    {
      "inputs": [],
      "stateMutability": "nonpayable",
      "type": "constructor"
    },
    {
      "inputs": [],
      "name": "owner",
      "outputs": [
        {
          "internalType": "address",
          "name": "",
          "type": "address"
        }
      ],
      "stateMutability": "view",
      "type": "function",
      "constant": true
    },
    {
      "stateMutability": "payable",
      "type": "receive",
      "payable": true
    },
    {
      "inputs": [
        {
          "internalType": "address payable",
          "name": "_to",
          "type": "address"
        }
      ],
      "name": "sendEther",
      "outputs": [],
      "stateMutability": "payable",
      "type": "function",
      "payable": true
    }
  ],
  "bytecode": "0x608060405234801561001057600080fd5b50336000806101000a81548173ffffffffffffffffffffffffffffffffffffffff021916908373ffffffffffffffffffffffffffffffffffffffff1602179055506102e6806100606000396000f3fe60806040526004361061002d5760003560e01c806348c981e2146100395780638da5cb5b1461005557610034565b3661003457005b600080fd5b610053600480360381019061004e9190610191565b610080565b005b34801561006157600080fd5b5061006a610158565b6040516100779190610209565b60405180910390f35b60008054906101000a900473ffffffffffffffffffffffffffffffffffffffff1673ffffffffffffffffffffffffffffffffffffffff163373ffffffffffffffffffffffffffffffffffffffff161461010e576040517f08c379a000000000000000000000000000000000000000000000000000000000815260040161010590610224565b60405180910390fd5b8073ffffffffffffffffffffffffffffffffffffffff166108fc349081150290604051600060405180830381858888f19350505050158015610154573d6000803e3d6000fd5b5050565b60008054906101000a900473ffffffffffffffffffffffffffffffffffffffff1681565b60008135905061018b81610299565b92915050565b6000602082840312156101a357600080fd5b60006101b18482850161017c565b91505092915050565b6101c381610255565b82525050565b60006101d6601d83610244565b91507f4f6e6c7920746865206f776e65722063616e2073656e642045746865720000006000830152602082019050919050565b600060208201905061021e60008301846101ba565b92915050565b6000602082019050818103600083015261023d816101c9565b9050919050565b600082825260208201905092915050565b600061026082610279565b9050919050565b600061027282610279565b9050919050565b600073ffffffffffffffffffffffffffffffffffffffff82169050919050565b6102a281610267565b81146102ad57600080fd5b5056fea2646970667358221220648ae2bc3cb6f196b294ea276bd35d62afe2e698bf568a30ca6aedd84e15576d64736f6c63430008000033",
  "immutableReferences": {},
  "source": "// SPDX-License-Identifier: MIT\r\npragma solidity ^0.8.0;\r\n\r\ncontract Wallet {\r\n    address public owner;\r\n\r\n    constructor() {\r\n        owner = msg.sender;\r\n    }\r\n\r\n    function sendEther(address payable _to) public payable {\r\n        require(msg.sender == owner, \"Only the owner can send Ether\");\r\n        _to.transfer(msg.value);\r\n    }\r\n\r\n    receive() external payable {}\r\n}\r\n",
  "sourcePath": "C:\\Users\\hasan\\Desktop\\BLOCKCHAIN\\project\\transether\\eth-wallet\\contracts\\Wallet.sol",
  "compiler": {
    "name": "solc",
    "version": "0.8.0+commit.c7dfd78e.Emscripten.clang"
  },
  "schemaVersion": "3.4.16",
  "updatedAt": "2024-05-20T04:28:41.414Z",
  "networkType": "ethereum",
  "devdoc": {
    "kind": "dev",
    "methods": {},
    "version": 1
  },
  "userdoc": {
    "kind": "user",
    "methods": {},
    "version": 1
  }
}