{
  "contractName": "Wallet",
  "abi": [
    {
      "inputs": [],
      "stateMutability": "nonpayable",
      "type": "constructor"
    },
    {
      "anonymous": false,
      "inputs": [
        {
          "indexed": true,
          "internalType": "address",
          "name": "from",
          "type": "address"
        },
        {
          "indexed": true,
          "internalType": "address",
          "name": "to",
          "type": "address"
        },
        {
          "indexed": false,
          "internalType": "uint256",
          "name": "value",
          "type": "uint256"
        }
      ],
      "name": "EtherSent",
      "type": "event"
    },
    {
      "anonymous": false,
      "inputs": [
        {
          "indexed": true,
          "internalType": "address",
          "name": "previousOwner",
          "type": "address"
        },
        {
          "indexed": true,
          "internalType": "address",
          "name": "newOwner",
          "type": "address"
        }
      ],
      "name": "OwnershipTransferred",
      "type": "event"
    },
    {
      "inputs": [],
      "name": "owner",
      "outputs": [
        {
          "internalType": "address",
          "name": "",
          "type": "address"
        }
      ],
      "stateMutability": "view",
      "type": "function",
      "constant": true
    },
    {
      "stateMutability": "payable",
      "type": "receive",
      "payable": true
    },
    {
      "inputs": [
        {
          "internalType": "address",
          "name": "newOwner",
          "type": "address"
        }
      ],
      "name": "transferOwnership",
      "outputs": [],
      "stateMutability": "nonpayable",
      "type": "function"
    },
    {
      "inputs": [
        {
          "internalType": "address payable",
          "name": "_to",
          "type": "address"
        }
      ],
      "name": "sendEther",
      "outputs": [],
      "stateMutability": "payable",
      "type": "function",
      "payable": true
    }
  ],
  "bytecode": "0x608060405234801561001057600080fd5b50336000806101000a81548173ffffffffffffffffffffffffffffffffffffffff021916908373ffffffffffffffffffffffffffffffffffffffff1602179055503373ffffffffffffffffffffffffffffffffffffffff16600073ffffffffffffffffffffffffffffffffffffffff167f8be0079c531659141344cd1fd0a4f28419497f9722a3daafe3b4186f6b6457e060405160405180910390a361065e806100bb6000396000f3fe6080604052600436106100385760003560e01c806348c981e2146100445780638da5cb5b14610060578063f2fde38b1461008b5761003f565b3661003f57005b600080fd5b61005e600480360381019061005991906103d8565b6100b4565b005b34801561006c57600080fd5b506100756101a6565b6040516100829190610505565b60405180910390f35b34801561009757600080fd5b506100b260048036038101906100ad91906103af565b6101ca565b005b600034116100f7576040517f08c379a00000000000000000000000000000000000000000000000000000000081526004016100ee90610540565b60405180910390fd5b8073ffffffffffffffffffffffffffffffffffffffff166108fc349081150290604051600060405180830381858888f1935050505015801561013d573d6000803e3d6000fd5b508073ffffffffffffffffffffffffffffffffffffffff163373ffffffffffffffffffffffffffffffffffffffff167f10d1a5dc650a65cd6625a330078a13ee62c6ec85b36e94bdf57e4d3188ca67383460405161019b9190610580565b60405180910390a350565b60008054906101000a900473ffffffffffffffffffffffffffffffffffffffff1681565b60008054906101000a900473ffffffffffffffffffffffffffffffffffffffff1673ffffffffffffffffffffffffffffffffffffffff163373ffffffffffffffffffffffffffffffffffffffff1614610258576040517f08c379a000000000000000000000000000000000000000000000000000000000815260040161024f90610520565b60405180910390fd5b600073ffffffffffffffffffffffffffffffffffffffff168173ffffffffffffffffffffffffffffffffffffffff1614156102c8576040517f08c379a00000000000000000000000000000000000000000000000000000000081526004016102bf90610560565b60405180910390fd5b8073ffffffffffffffffffffffffffffffffffffffff1660008054906101000a900473ffffffffffffffffffffffffffffffffffffffff1673ffffffffffffffffffffffffffffffffffffffff167f8be0079c531659141344cd1fd0a4f28419497f9722a3daafe3b4186f6b6457e060405160405180910390a3806000806101000a81548173ffffffffffffffffffffffffffffffffffffffff021916908373ffffffffffffffffffffffffffffffffffffffff16021790555050565b600081359050610394816105fa565b92915050565b6000813590506103a981610611565b92915050565b6000602082840312156103c157600080fd5b60006103cf84828501610385565b91505092915050565b6000602082840312156103ea57600080fd5b60006103f88482850161039a565b91505092915050565b61040a816105ac565b82525050565b600061041d60258361059b565b91507f4f6e6c7920746865206f776e65722063616e2063616c6c20746869732066756e60008301527f6374696f6e0000000000000000000000000000000000000000000000000000006020830152604082019050919050565b600061048360148361059b565b91507f4d7573742073656e6420736f6d652065746865720000000000000000000000006000830152602082019050919050565b60006104c3601d8361059b565b91507f4e6577206f776e657220697320746865207a65726f20616464726573730000006000830152602082019050919050565b6104ff816105f0565b82525050565b600060208201905061051a6000830184610401565b92915050565b6000602082019050818103600083015261053981610410565b9050919050565b6000602082019050818103600083015261055981610476565b9050919050565b60006020820190508181036000830152610579816104b6565b9050919050565b600060208201905061059560008301846104f6565b92915050565b600082825260208201905092915050565b60006105b7826105d0565b9050919050565b60006105c9826105d0565b9050919050565b600073ffffffffffffffffffffffffffffffffffffffff82169050919050565b6000819050919050565b610603816105ac565b811461060e57600080fd5b50565b61061a816105be565b811461062557600080fd5b5056fea26469706673582212201c57dddeafbdc573b3799b1b9693d06e217633da9837ed60c4375679151632c064736f6c63430008000033",
  "immutableReferences": {},
  "source": "// SPDX-License-Identifier: MIT\r\npragma solidity ^0.8.0;\r\n\r\ncontract Wallet {\r\n    address public owner;\r\n\r\n    event OwnershipTransferred(address indexed previousOwner, address indexed newOwner);\r\n    event EtherSent(address indexed from, address indexed to, uint256 value);\r\n\r\n    constructor() {\r\n        owner = msg.sender;\r\n        emit OwnershipTransferred(address(0), msg.sender);\r\n    }\r\n\r\n    modifier onlyOwner() {\r\n        require(msg.sender == owner, \"Only the owner can call this function\");\r\n        _;\r\n    }\r\n\r\n    function transferOwnership(address newOwner) public onlyOwner {\r\n        require(newOwner != address(0), \"New owner is the zero address\");\r\n        emit OwnershipTransferred(owner, newOwner);\r\n        owner = newOwner;\r\n    }\r\n\r\n    function sendEther(address payable _to) public payable {\r\n        require(msg.value > 0, \"Must send some ether\");\r\n        _to.transfer(msg.value);\r\n        emit EtherSent(msg.sender, _to, msg.value);\r\n    }\r\n\r\n    receive() external payable {}\r\n}\r\n",
  "sourcePath": "C:\\Users\\hasan\\Desktop\\BLOCKCHAIN\\project\\transether\\eth-wallet\\contracts\\Wallet.sol",
  "compiler": {
    "name": "solc",
    "version": "0.8.0+commit.c7dfd78e.Emscripten.clang"
  },
  "schemaVersion": "3.4.16",
  "updatedAt": "2024-05-20T07:25:17.833Z",
  "networkType": "ethereum",
  "devdoc": {
    "kind": "dev",
    "methods": {},
    "version": 1
  },
  "userdoc": {
    "kind": "user",
    "methods": {},
    "version": 1
  }
}